{
  "contractName": "DAPP",
  "abi": [
    {
      "inputs": [
        {
          "internalType": "uint256",
          "name": "",
          "type": "uint256"
        }
      ],
      "name": "accounts",
      "outputs": [
        {
          "internalType": "uint256",
          "name": "account_id",
          "type": "uint256"
        },
        {
          "internalType": "uint256",
          "name": "user1",
          "type": "uint256"
        },
        {
          "internalType": "uint256",
          "name": "user2",
          "type": "uint256"
        },
        {
          "internalType": "uint256",
          "name": "balance",
          "type": "uint256"
        },
        {
          "internalType": "bool",
          "name": "exists",
          "type": "bool"
        }
      ],
      "stateMutability": "view",
      "type": "function",
      "constant": true
    },
    {
      "inputs": [],
      "name": "accountsCount",
      "outputs": [
        {
          "internalType": "uint256",
          "name": "",
          "type": "uint256"
        }
      ],
      "stateMutability": "view",
      "type": "function",
      "constant": true
    },
    {
      "inputs": [
        {
          "internalType": "uint256",
          "name": "",
          "type": "uint256"
        }
      ],
      "name": "users",
      "outputs": [
        {
          "internalType": "uint256",
          "name": "id",
          "type": "uint256"
        },
        {
          "internalType": "string",
          "name": "name",
          "type": "string"
        },
        {
          "internalType": "uint256",
          "name": "balance",
          "type": "uint256"
        },
        {
          "internalType": "uint256",
          "name": "partnerCount",
          "type": "uint256"
        },
        {
          "internalType": "bool",
          "name": "exists",
          "type": "bool"
        }
      ],
      "stateMutability": "view",
      "type": "function",
      "constant": true
    },
    {
      "inputs": [],
      "name": "usersCount",
      "outputs": [
        {
          "internalType": "uint256",
          "name": "",
          "type": "uint256"
        }
      ],
      "stateMutability": "view",
      "type": "function",
      "constant": true
    },
    {
      "inputs": [
        {
          "internalType": "uint256",
          "name": "id",
          "type": "uint256"
        },
        {
          "internalType": "string",
          "name": "name",
          "type": "string"
        }
      ],
      "name": "registerUser",
      "outputs": [],
      "stateMutability": "nonpayable",
      "type": "function"
    },
    {
      "inputs": [
        {
          "internalType": "uint256",
          "name": "val1",
          "type": "uint256"
        },
        {
          "internalType": "uint256",
          "name": "val2",
          "type": "uint256"
        }
      ],
      "name": "min",
      "outputs": [
        {
          "internalType": "uint256",
          "name": "",
          "type": "uint256"
        }
      ],
      "stateMutability": "pure",
      "type": "function",
      "constant": true
    },
    {
      "inputs": [
        {
          "internalType": "uint256",
          "name": "user1",
          "type": "uint256"
        },
        {
          "internalType": "uint256",
          "name": "user2",
          "type": "uint256"
        }
      ],
      "name": "getAccountId",
      "outputs": [
        {
          "internalType": "uint256",
          "name": "",
          "type": "uint256"
        }
      ],
      "stateMutability": "pure",
      "type": "function",
      "constant": true
    },
    {
      "inputs": [
        {
          "internalType": "uint256",
          "name": "user1",
          "type": "uint256"
        },
        {
          "internalType": "uint256",
          "name": "user2",
          "type": "uint256"
        },
        {
          "internalType": "uint256",
          "name": "balance",
          "type": "uint256"
        }
      ],
      "name": "createAcc",
      "outputs": [],
      "stateMutability": "nonpayable",
      "type": "function"
    },
    {
      "inputs": [
        {
          "internalType": "uint256",
          "name": "user1",
          "type": "uint256"
        },
        {
          "internalType": "uint256",
          "name": "user2",
          "type": "uint256"
        },
        {
          "internalType": "uint256",
          "name": "amount",
          "type": "uint256"
        }
      ],
      "name": "sendAmount",
      "outputs": [],
      "stateMutability": "nonpayable",
      "type": "function"
    },
    {
      "inputs": [
        {
          "internalType": "uint256",
          "name": "user1",
          "type": "uint256"
        },
        {
          "internalType": "uint256",
          "name": "user2",
          "type": "uint256"
        }
      ],
      "name": "closeAccount",
      "outputs": [],
      "stateMutability": "nonpayable",
      "type": "function"
    }
  ],
  "bytecode": "0x608060405234801561001057600080fd5b50612399806100206000396000f3fe608060405234801561001057600080fd5b506004361061009e5760003560e01c80637ae2b5c7116100665780637ae2b5c71461014b578063b54834811461017b578063bd45d6eb14610197578063f0c61154146101b3578063f2a40db8146101e35761009e565b80631c57333e146100a357806327538b30146100bf578063365b98b2146100dd5780633f3078df146101115780636ba13a821461012d575b600080fd5b6100bd60048036038101906100b8919061177f565b610217565b005b6100c761039c565b6040516100d491906117ea565b60405180910390f35b6100f760048036038101906100f29190611805565b6103a2565b6040516101089594939291906118cc565b60405180910390f35b61012b60048036038101906101269190611926565b61046d565b005b610135610c10565b60405161014291906117ea565b60405180910390f35b61016560048036038101906101609190611979565b610c16565b60405161017291906117ea565b60405180910390f35b61019560048036038101906101909190611926565b610c34565b005b6101b160048036038101906101ac9190611979565b611038565b005b6101cd60048036038101906101c89190611979565b6114c4565b6040516101da91906117ea565b60405180910390f35b6101fd60048036038101906101f89190611805565b611521565b60405161020e9594939291906119b9565b60405180910390f35b60008083815260200190815260200160002060050160009054906101000a900460ff161561027a576040517f08c379a000000000000000000000000000000000000000000000000000000000815260040161027190611a58565b60405180910390fd5b6001600081548092919061028d90611aa7565b919050555060008067ffffffffffffffff8111156102ae576102ad611654565b5b6040519080825280602002602001820160405280156102dc5781602001602082028036833780820191505090505b5090506040518060c001604052808481526020018381526020016000815260200182815260200160008152602001600115158152506000808581526020019081526020016000206000820151816000015560208201518160010190816103429190611cfb565b50604082015181600201556060820151816003019080519060200190610369929190611564565b506080820151816004015560a08201518160050160006101000a81548160ff021916908315150217905550905050505050565b60035481565b60006020528060005260406000206000915090508060000154908060010180546103cb90611b1e565b80601f01602080910402602001604051908101604052809291908181526020018280546103f790611b1e565b80156104445780601f1061041957610100808354040283529160200191610444565b820191906000526020600020905b81548152906001019060200180831161042757829003601f168201915b5050505050908060020154908060040154908060050160009054906101000a900460ff16905085565b60008084815260200190815260200160002060050160009054906101000a900460ff166104cf576040517f08c379a00000000000000000000000000000000000000000000000000000000081526004016104c690611e19565b60405180910390fd5b60008083815260200190815260200160002060050160009054906101000a900460ff16610531576040517f08c379a000000000000000000000000000000000000000000000000000000000815260040161052890611e85565b60405180910390fd5b818303610573576040517f08c379a000000000000000000000000000000000000000000000000000000000815260040161056a90611ef1565b60405180910390fd5b600060015467ffffffffffffffff81111561059157610590611654565b5b6040519080825280602002602001820160405280156105bf5781602001602082028036833780820191505090505b50905060005b81518110156106085760008282815181106105e3576105e2611f11565b5b602002602001019015159081151581525050808061060090611aa7565b9150506105c5565b506000849050600060015467ffffffffffffffff81111561062c5761062b611654565b5b60405190808252806020026020018201604052801561065a5781602001602082028036833780820191505090505b509050600060015467ffffffffffffffff81111561067b5761067a611654565b5b6040519080825280602002602001820160405280156106a95781602001602082028036833780820191505090505b50905060005b60015481101561070c577fffffffffffffffffffffffffffffffffffffffffffffffffffffffffffffffff8282815181106106ed576106ec611f11565b5b602002602001018181525050808061070490611aa7565b9150506106af565b506000806001868a8151811061072557610724611f11565b5b6020026020010190151590811515815250508884828061074490611aa7565b93508151811061075757610756611f11565b5b6020026020010181815250505b808214610a255783828061077790611aa7565b93508151811061078a57610789611f11565b5b6020026020010151945087850315610a255760005b60008087815260200190815260200160002060040154811015610a1f5760006107f9876000808a815260200190815260200160002060030184815481106107e9576107e8611f11565b5b90600052602060002001546114c4565b90506000806000898152602001908152602001600020600301838154811061082457610823611f11565b5b9060005260206000200154881061086e576002600083815260200190815260200160002060040160018154811061085e5761085d611f11565b5b90600052602060002001546108a3565b6002600083815260200190815260200160002060040160008154811061089757610896611f11565b5b90600052602060002001545b9050886000808a815260200190815260200160002060030184815481106108cd576108cc611f11565b5b9060005260206000200154815181106108e9576108e8611f11565b5b60200260200101511580156108fe5750898110155b15610a0a5787866000808b8152602001908152602001600020600301858154811061092c5761092b611f11565b5b90600052602060002001548151811061094857610947611f11565b5b6020026020010181815250506001896000808b8152602001908152602001600020600301858154811061097e5761097d611f11565b5b90600052602060002001548151811061099a57610999611f11565b5b60200260200101901515908115158152505060008089815260200190815260200160002060030183815481106109d3576109d2611f11565b5b90600052602060002001548785806109ea90611aa7565b9650815181106109fd576109fc611f11565b5b6020026020010181815250505b50508080610a1790611aa7565b91505061079f565b50610764565b878514610a67576040517f08c379a0000000000000000000000000000000000000000000000000000000008152600401610a5e90611fb2565b60405180910390fd5b878503610c05575b888514610c04576000610a9c86858881518110610a8f57610a8e611f11565b5b60200260200101516114c4565b90506000848781518110610ab357610ab2611f11565b5b60200260200101518710610ac8576001610acb565b60005b60ff16905088600260008481526020019081526020016000206004018281548110610af957610af8611f11565b5b906000526020600020016000828254610b129190611fd2565b925050819055508860026000848152602001908152602001600020600401826001610b3d9190612006565b81548110610b4e57610b4d611f11565b5b906000526020600020016000828254610b679190612006565b92505081905550886000808981526020019081526020016000206002016000828254610b939190611fd2565b9250508190555088600080878a81518110610bb157610bb0611f11565b5b602002602001015181526020019081526020016000206002016000828254610bd99190612006565b92505081905550848781518110610bf357610bf2611f11565b5b602002602001015196505050610a6f565b5b505050505050505050565b60015481565b600080828410610c265782610c28565b835b90508091505092915050565b60008084815260200190815260200160002060050160009054906101000a900460ff16610c96576040517f08c379a0000000000000000000000000000000000000000000000000000000008152600401610c8d90612086565b60405180910390fd5b60008083815260200190815260200160002060050160009054906101000a900460ff16610cf8576040517f08c379a0000000000000000000000000000000000000000000000000000000008152600401610cef906120f2565b60405180910390fd5b818303610d3a576040517f08c379a0000000000000000000000000000000000000000000000000000000008152600401610d3190612184565b60405180910390fd5b6000610d4684846114c4565b90506002600082815260200190815260200160002060050160009054906101000a900460ff1615610dac576040517f08c379a0000000000000000000000000000000000000000000000000000000008152600401610da3906121f0565b60405180910390fd5b60036000815480929190610dbf90611aa7565b91905055506000600267ffffffffffffffff811115610de157610de0611654565b5b604051908082528060200260200182016040528015610e0f5781602001602082028036833780820191505090505b5090508281600081518110610e2757610e26611f11565b5b6020026020010181815250508281600181518110610e4857610e47611f11565b5b6020026020010181815250506040518060c00160405280838152602001868152602001858152602001600285610e7e9190612210565b81526020018281526020016001151581525060026000848152602001908152602001600020600082015181600001556020820151816001015560408201518160020155606082015181600301556080820151816004019080519060200190610ee7929190611564565b5060a08201518160050160006101000a81548160ff0219169083151502179055509050506000808681526020019081526020016000206003018490806001815401808255809150506001900390600052602060002001600090919091909150556000808581526020019081526020016000206003018590806001815401808255809150506001900390600052602060002001600090919091909150556000808681526020019081526020016000206004016000815480929190610fa990611aa7565b91905055506000808581526020019081526020016000206004016000815480929190610fd490611aa7565b9190505550826000808781526020019081526020016000206002016000828254610ffe9190611fd2565b9250508190555082600080868152602001908152602001600020600201600082825461102a9190611fd2565b925050819055505050505050565b600061104483836114c4565b90506002600082815260200190815260200160002060050160009054906101000a900460ff166110a9576040517f08c379a00000000000000000000000000000000000000000000000000000000081526004016110a09061229e565b60405180910390fd5b82826110b59190611fd2565b91506110c18383610c16565b925082826110cf9190612006565b9150600260008281526020019081526020016000206004016000815481106110fa576110f9611f11565b5b906000526020600020015460008085815260200190815260200160002060020160008282546111299190611fd2565b925050819055506002600082815260200190815260200160002060040160018154811061115957611158611f11565b5b906000526020600020015460008084815260200190815260200160002060020160008282546111889190611fd2565b9250508190555060005b600080858152602001908152602001600020600401548110156112b2578260008086815260200190815260200160002060030182815481106111d7576111d6611f11565b5b90600052602060002001540361129f5760008085815260200190815260200160002060030160016000808781526020019081526020016000206004015461121e9190612006565b8154811061122f5761122e611f11565b5b9060005260206000200154600080868152602001908152602001600020600301828154811061126157611260611f11565b5b90600052602060002001819055506000808581526020019081526020016000206004016000815480929190611295906122be565b91905055506112b2565b80806112aa90611aa7565b915050611192565b506000808481526020019081526020016000206003018054806112d8576112d76122e7565b5b6001900381819060005260206000200160009055905560005b600080848152602001908152602001600020600401548110156114115783600080858152602001908152602001600020600301828154811061133657611335611f11565b5b9060005260206000200154036113fe5760008084815260200190815260200160002060030160016000808681526020019081526020016000206004015461137d9190612006565b8154811061138e5761138d611f11565b5b906000526020600020015460008085815260200190815260200160002060030182815481106113c0576113bf611f11565b5b906000526020600020018190555060008084815260200190815260200160002060040160008154809291906113f4906122be565b9190505550611411565b808061140990611aa7565b9150506112f1565b50600080838152602001908152602001600020600301805480611437576114366122e7565b5b600190038181906000526020600020016000905590556002600082815260200190815260200160002060008082016000905560018201600090556002820160009055600382016000905560048201600061149191906115b1565b6005820160006101000a81549060ff02191690555050600360008154809291906114ba906122be565b9190505550505050565b6000808284106114d457826114d6565b835b905060008385106114e757846114e9565b835b905081816040516020016114fe929190612337565b6040516020818303038152906040528051906020012060001c9250505092915050565b60026020528060005260406000206000915090508060000154908060010154908060020154908060030154908060050160009054906101000a900460ff16905085565b8280548282559060005260206000209081019282156115a0579160200282015b8281111561159f578251825591602001919060010190611584565b5b5090506115ad91906115d2565b5090565b50805460008255906000526020600020908101906115cf91906115d2565b50565b5b808211156115eb5760008160009055506001016115d3565b5090565b6000604051905090565b600080fd5b600080fd5b6000819050919050565b61161681611603565b811461162157600080fd5b50565b6000813590506116338161160d565b92915050565b600080fd5b600080fd5b6000601f19601f8301169050919050565b7f4e487b7100000000000000000000000000000000000000000000000000000000600052604160045260246000fd5b61168c82611643565b810181811067ffffffffffffffff821117156116ab576116aa611654565b5b80604052505050565b60006116be6115ef565b90506116ca8282611683565b919050565b600067ffffffffffffffff8211156116ea576116e9611654565b5b6116f382611643565b9050602081019050919050565b82818337600083830152505050565b600061172261171d846116cf565b6116b4565b90508281526020810184848401111561173e5761173d61163e565b5b611749848285611700565b509392505050565b600082601f83011261176657611765611639565b5b813561177684826020860161170f565b91505092915050565b60008060408385031215611796576117956115f9565b5b60006117a485828601611624565b925050602083013567ffffffffffffffff8111156117c5576117c46115fe565b5b6117d185828601611751565b9150509250929050565b6117e481611603565b82525050565b60006020820190506117ff60008301846117db565b92915050565b60006020828403121561181b5761181a6115f9565b5b600061182984828501611624565b91505092915050565b600081519050919050565b600082825260208201905092915050565b60005b8381101561186c578082015181840152602081019050611851565b60008484015250505050565b600061188382611832565b61188d818561183d565b935061189d81856020860161184e565b6118a681611643565b840191505092915050565b60008115159050919050565b6118c6816118b1565b82525050565b600060a0820190506118e160008301886117db565b81810360208301526118f38187611878565b905061190260408301866117db565b61190f60608301856117db565b61191c60808301846118bd565b9695505050505050565b60008060006060848603121561193f5761193e6115f9565b5b600061194d86828701611624565b935050602061195e86828701611624565b925050604061196f86828701611624565b9150509250925092565b600080604083850312156119905761198f6115f9565b5b600061199e85828601611624565b92505060206119af85828601611624565b9150509250929050565b600060a0820190506119ce60008301886117db565b6119db60208301876117db565b6119e860408301866117db565b6119f560608301856117db565b611a0260808301846118bd565b9695505050505050565b7f5573657220616c72656164792065786973747300000000000000000000000000600082015250565b6000611a4260138361183d565b9150611a4d82611a0c565b602082019050919050565b60006020820190508181036000830152611a7181611a35565b9050919050565b7f4e487b7100000000000000000000000000000000000000000000000000000000600052601160045260246000fd5b6000611ab282611603565b91507fffffffffffffffffffffffffffffffffffffffffffffffffffffffffffffffff8203611ae457611ae3611a78565b5b600182019050919050565b7f4e487b7100000000000000000000000000000000000000000000000000000000600052602260045260246000fd5b60006002820490506001821680611b3657607f821691505b602082108103611b4957611b48611aef565b5b50919050565b60008190508160005260206000209050919050565b60006020601f8301049050919050565b600082821b905092915050565b600060088302611bb17fffffffffffffffffffffffffffffffffffffffffffffffffffffffffffffffff82611b74565b611bbb8683611b74565b95508019841693508086168417925050509392505050565b6000819050919050565b6000611bf8611bf3611bee84611603565b611bd3565b611603565b9050919050565b6000819050919050565b611c1283611bdd565b611c26611c1e82611bff565b848454611b81565b825550505050565b600090565b611c3b611c2e565b611c46818484611c09565b505050565b5b81811015611c6a57611c5f600082611c33565b600181019050611c4c565b5050565b601f821115611caf57611c8081611b4f565b611c8984611b64565b81016020851015611c98578190505b611cac611ca485611b64565b830182611c4b565b50505b505050565b600082821c905092915050565b6000611cd260001984600802611cb4565b1980831691505092915050565b6000611ceb8383611cc1565b9150826002028217905092915050565b611d0482611832565b67ffffffffffffffff811115611d1d57611d1c611654565b5b611d278254611b1e565b611d32828285611c6e565b600060209050601f831160018114611d655760008415611d53578287015190505b611d5d8582611cdf565b865550611dc5565b601f198416611d7386611b4f565b60005b82811015611d9b57848901518255600182019150602085019450602081019050611d76565b86831015611db85784890151611db4601f891682611cc1565b8355505b6001600288020188555050505b505050505050565b7f55736572203120646f6573206e6f742065786973747300000000000000000000600082015250565b6000611e0360168361183d565b9150611e0e82611dcd565b602082019050919050565b60006020820190508181036000830152611e3281611df6565b9050919050565b7f55736572203220646f6573206e6f742065786973747300000000000000000000600082015250565b6000611e6f60168361183d565b9150611e7a82611e39565b602082019050919050565b60006020820190508181036000830152611e9e81611e62565b9050919050565b7f557365722063616e6e6f742073656e64206d6f6e657920746f2073656c660000600082015250565b6000611edb601e8361183d565b9150611ee682611ea5565b602082019050919050565b60006020820190508181036000830152611f0a81611ece565b9050919050565b7f4e487b7100000000000000000000000000000000000000000000000000000000600052603260045260246000fd5b7f4e6f207061746820776974682073756666696369656e7420616d6f756e74206560008201527f7869737473000000000000000000000000000000000000000000000000000000602082015250565b6000611f9c60258361183d565b9150611fa782611f40565b604082019050919050565b60006020820190508181036000830152611fcb81611f8f565b9050919050565b6000611fdd82611603565b9150611fe883611603565b925082820190508082111561200057611fff611a78565b5b92915050565b600061201182611603565b915061201c83611603565b925082820390508181111561203457612033611a78565b5b92915050565b7f55736572203120646f6573206e6f742065786973740000000000000000000000600082015250565b600061207060158361183d565b915061207b8261203a565b602082019050919050565b6000602082019050818103600083015261209f81612063565b9050919050565b7f55736572203220646f6573206e6f742065786973740000000000000000000000600082015250565b60006120dc60158361183d565b91506120e7826120a6565b602082019050919050565b6000602082019050818103600083015261210b816120cf565b9050919050565b7f43616e6e6f7420637265617465206163636f756e7420776974682073616d652060008201527f7573657200000000000000000000000000000000000000000000000000000000602082015250565b600061216e60248361183d565b915061217982612112565b604082019050919050565b6000602082019050818103600083015261219d81612161565b9050919050565b7f4a6f696e74206163636f756e7420616c7265616479206578697374732e000000600082015250565b60006121da601d8361183d565b91506121e5826121a4565b602082019050919050565b60006020820190508181036000830152612209816121cd565b9050919050565b600061221b82611603565b915061222683611603565b925082820261223481611603565b9150828204841483151761224b5761224a611a78565b5b5092915050565b7f4163636f756e7420646f6573206e6f7420657869737400000000000000000000600082015250565b600061228860168361183d565b915061229382612252565b602082019050919050565b600060208201905081810360008301526122b78161227b565b9050919050565b60006122c982611603565b9150600082036122dc576122db611a78565b5b600182039050919050565b7f4e487b7100000000000000000000000000000000000000000000000000000000600052603160045260246000fd5b6000819050919050565b61233161232c82611603565b612316565b82525050565b60006123438285612320565b6020820191506123538284612320565b602082019150819050939250505056fea264697066735822122094e46fc83497c8095288b536a50724aa78e3a0eb006432952e8df28658dcc55964736f6c63430008130033",
  "immutableReferences": {},
  "source": "// SPDX-License-Identifier: MIT\npragma solidity ^0.8.0;\n\ncontract DAPP{\n    \n    struct User {\n        uint id;\n        string name;\n        uint balance;\n        uint[] partners;\n        uint partnerCount;\n        bool exists;\n    }\n    \n    struct Account {\n        uint account_id;\n        uint user1;\n        uint user2;\n        uint balance;\n        uint[] contributions;\n        bool exists;\n    }\n    \n    mapping(uint => User) public users;\n    uint public usersCount;\n    mapping(uint => Account) public accounts;\n    uint public accountsCount;\n    \n    function registerUser(uint id, string memory name) public {\n        require(!users[id].exists, \"User already exists\");\n        usersCount++;\n        uint[] memory partners = new uint[](0);\n        users[id] = User(id, name,0, partners, 0, true);\n    }\n\n    function min(uint val1, uint val2) public pure returns (uint){\n        uint smaller = val1 < val2 ? val1 : val2;\n        return(smaller);\n    }\n\n    function getAccountId(uint user1, uint user2) public pure returns (uint) {\n        uint smallerUserId = user1 < user2 ? user1 : user2;\n        uint largerUserId = user1 < user2 ? user2 : user1;\n        return uint(keccak256(abi.encodePacked(smallerUserId, largerUserId)));\n    }\n    \n    // balance - is the balance of individual node\n    function createAcc(uint user1, uint user2, uint balance) public {\n        // users should exist\n        require(users[user1].exists, \"User 1 does not exist\");\n        require(users[user2].exists, \"User 2 does not exist\");\n\n        // Account should not be created with the same user\n        require(user1 != user2, \"Cannot create account with same user\");\n        \n        // Same account should not exist\n        uint account_id = getAccountId(user1, user2);\n        require(!accounts[account_id].exists, \"Joint account already exists.\");\n        \n        // Increment the accounts count\n        accountsCount++;\n\n        uint[] memory contributions = new uint[](2);\n        contributions[0] = balance;\n        contributions[1] = balance;\n\n        // Updating the state of the users\n        accounts[account_id] = Account(account_id, user1, user2, balance*2, contributions, true);\n        users[user1].partners.push(user2);\n        users[user2].partners.push(user1);\n        users[user1].partnerCount++;\n        users[user2].partnerCount++;\n        users[user1].balance += balance;\n        users[user2].balance += balance;\n    }\n\n    function sendAmount(uint user1,uint user2,uint amount) public{\n        require(users[user1].exists, \"User 1 does not exists\");\n        require(users[user2].exists, \"User 2 does not exists\");\n        \n        require(user1!=user2, \"User cannot send money to self\");\n        \n        bool[] memory visited = new bool[](usersCount);\n        for (uint i = 0; i < visited.length; i++) {\n            visited[i] = false; // set all elements to 10\n        }\n\n        uint currnode = user1;\n\n        // Queue for BFS \n        uint[] memory queue = new uint[](usersCount);\n        uint[] memory parent = new uint[](usersCount);\n        // initializing the parent of each node as 2^256 -1 \n        for(uint i = 0;i<usersCount;i++){\n            parent[i] = type(uint).max;\n        }\n        uint front = 0;\n        uint rear = 0;\n\n        visited[user1] = true;\n        queue[rear++] = user1;\n\n        while(front != rear){\n            currnode = queue[front++];\n            if (currnode == user2){\n                break;\n            }\n            \n            for(uint adjacent = 0; adjacent < users[currnode].partnerCount;adjacent++){\n                uint account_id = getAccountId(currnode, users[currnode].partners[adjacent]);\n                uint currnode_contri = (currnode < users[currnode].partners[adjacent])? accounts[account_id].contributions[0] : accounts[account_id].contributions[1];\n\n                // add it to BFS if it has not been visited and the edge (on source side) has suffecient balance\n                if(!visited[users[currnode].partners[adjacent]] && currnode_contri >= amount){\n                    parent[users[currnode].partners[adjacent]] = currnode;\n                    visited[users[currnode].partners[adjacent]] = true;\n                    queue[rear++] = users[currnode].partners[adjacent];\n                }\n            }\n        }    \n\n        // no path to user2 has enough amount\n        require(currnode == user2, \"No path with sufficient amount exists\");\n        if(currnode == user2){\n            while(currnode!= user1){\n                uint account_id = getAccountId(currnode, parent[currnode]);\n                uint currnode_index = (currnode < parent[currnode])? 0:1;\n\n                accounts[account_id].contributions[currnode_index] += amount;\n                accounts[account_id].contributions[1-currnode_index] -= amount;\n\n                users[currnode].balance += amount;\n                users[parent[currnode]].balance -= amount;\n\n                currnode = parent[currnode];\n            }\n        }  \n    }\n\n\n    function closeAccount(uint user1, uint user2) public {\n        uint account_id = getAccountId(user1, user2);\n        require(accounts[account_id].exists, \"Account does not exist\");\n\n        // user1 changed to the lower user_id of the two\n        user2 = user2 + user1;\n        user1 = min(user1, user2);\n        user2 = user2 - user1;\n\n        users[user1].balance += accounts[account_id].contributions[0];\n        users[user2].balance += accounts[account_id].contributions[1];\n        \n        for (uint i = 0; i < users[user1].partnerCount; i++) {\n            if (users[user1].partners[i] == user2) {\n                users[user1].partners[i] = users[user1].partners[users[user1].partnerCount - 1];\n                users[user1].partnerCount--;\n                break;\n            }\n        }\n\n        users[user1].partners.pop();\n        \n        for (uint i = 0; i < users[user2].partnerCount; i++) {\n            if (users[user2].partners[i] == user1) {\n                users[user2].partners[i] = users[user2].partners[users[user2].partnerCount - 1];\n                users[user2].partnerCount--;\n                break;\n            }\n        }\n\n        users[user2].partners.pop();\n        \n        delete accounts[account_id];\n\n        accountsCount--;\n    }\n}",
  "sourcePath": "/mnt/c/Users/shubh/onedrive/desktop/cs765-assignment3/contracts/DAPP.sol",
  "compiler": {
    "name": "solc",
    "version": "0.8.19+commit.7dd6d404.Emscripten.clang"
  },
  "schemaVersion": "3.4.13",
  "updatedAt": "2023-04-11T10:48:37.960Z",
  "networkType": "ethereum",
  "devdoc": {
    "kind": "dev",
    "methods": {},
    "version": 1
  },
  "userdoc": {
    "kind": "user",
    "methods": {},
    "version": 1
  }
}