{
  "contractName": "DAPP",
  "abi": [
    {
      "inputs": [
        {
          "internalType": "uint256",
          "name": "",
          "type": "uint256"
        }
      ],
      "name": "accounts",
      "outputs": [
        {
          "internalType": "uint256",
          "name": "account_id",
          "type": "uint256"
        },
        {
          "internalType": "uint256",
          "name": "user1",
          "type": "uint256"
        },
        {
          "internalType": "uint256",
          "name": "user2",
          "type": "uint256"
        },
        {
          "internalType": "uint256",
          "name": "balance",
          "type": "uint256"
        },
        {
          "internalType": "bool",
          "name": "exists",
          "type": "bool"
        }
      ],
      "stateMutability": "view",
      "type": "function",
      "constant": true
    },
    {
      "inputs": [],
      "name": "accountsCount",
      "outputs": [
        {
          "internalType": "uint256",
          "name": "",
          "type": "uint256"
        }
      ],
      "stateMutability": "view",
      "type": "function",
      "constant": true
    },
    {
      "inputs": [
        {
          "internalType": "uint256",
          "name": "",
          "type": "uint256"
        }
      ],
      "name": "users",
      "outputs": [
        {
          "internalType": "uint256",
          "name": "id",
          "type": "uint256"
        },
        {
          "internalType": "string",
          "name": "name",
          "type": "string"
        },
        {
          "internalType": "uint256",
          "name": "balance",
          "type": "uint256"
        },
        {
          "internalType": "uint256",
          "name": "partnerCount",
          "type": "uint256"
        },
        {
          "internalType": "bool",
          "name": "exists",
          "type": "bool"
        }
      ],
      "stateMutability": "view",
      "type": "function",
      "constant": true
    },
    {
      "inputs": [],
      "name": "usersCount",
      "outputs": [
        {
          "internalType": "uint256",
          "name": "",
          "type": "uint256"
        }
      ],
      "stateMutability": "view",
      "type": "function",
      "constant": true
    },
    {
      "inputs": [
        {
          "internalType": "uint256",
          "name": "id",
          "type": "uint256"
        },
        {
          "internalType": "string",
          "name": "name",
          "type": "string"
        }
      ],
      "name": "registerUser",
      "outputs": [],
      "stateMutability": "nonpayable",
      "type": "function"
    },
    {
      "inputs": [
        {
          "internalType": "uint256",
          "name": "user1",
          "type": "uint256"
        },
        {
          "internalType": "uint256",
          "name": "user2",
          "type": "uint256"
        }
      ],
      "name": "getAccountId",
      "outputs": [
        {
          "internalType": "uint256",
          "name": "",
          "type": "uint256"
        }
      ],
      "stateMutability": "pure",
      "type": "function",
      "constant": true
    },
    {
      "inputs": [
        {
          "internalType": "uint256",
          "name": "user1",
          "type": "uint256"
        },
        {
          "internalType": "uint256",
          "name": "user2",
          "type": "uint256"
        },
        {
          "internalType": "uint256",
          "name": "balance",
          "type": "uint256"
        }
      ],
      "name": "createAcc",
      "outputs": [],
      "stateMutability": "nonpayable",
      "type": "function"
    },
    {
      "inputs": [
        {
          "internalType": "uint256",
          "name": "user1",
          "type": "uint256"
        },
        {
          "internalType": "uint256",
          "name": "user2",
          "type": "uint256"
        },
        {
          "internalType": "uint256",
          "name": "amount",
          "type": "uint256"
        }
      ],
      "name": "sendAmount",
      "outputs": [],
      "stateMutability": "nonpayable",
      "type": "function"
    },
    {
      "inputs": [
        {
          "internalType": "uint256",
          "name": "user1",
          "type": "uint256"
        },
        {
          "internalType": "uint256",
          "name": "user2",
          "type": "uint256"
        }
      ],
      "name": "closeAccount",
      "outputs": [],
      "stateMutability": "nonpayable",
      "type": "function"
    }
  ],
  "bytecode": "0x608060405234801561001057600080fd5b50612346806100206000396000f3fe608060405234801561001057600080fd5b50600436106100935760003560e01c80636ba13a82116100665780636ba13a8214610122578063b548348114610140578063bd45d6eb1461015c578063f0c6115414610178578063f2a40db8146101a857610093565b80631c57333e1461009857806327538b30146100b4578063365b98b2146100d25780633f3078df14610106575b600080fd5b6100b260048036038101906100ad919061172c565b6101dc565b005b6100bc610361565b6040516100c99190611797565b60405180910390f35b6100ec60048036038101906100e791906117b2565b610367565b6040516100fd959493929190611879565b60405180910390f35b610120600480360381019061011b91906118d3565b610432565b005b61012a610bd5565b6040516101379190611797565b60405180910390f35b61015a600480360381019061015591906118d3565b610bdb565b005b61017660048036038101906101719190611926565b610fdf565b005b610192600480360381019061018d9190611926565b611471565b60405161019f9190611797565b60405180910390f35b6101c260048036038101906101bd91906117b2565b6114ce565b6040516101d3959493929190611966565b60405180910390f35b60008083815260200190815260200160002060050160009054906101000a900460ff161561023f576040517f08c379a000000000000000000000000000000000000000000000000000000000815260040161023690611a05565b60405180910390fd5b6001600081548092919061025290611a54565b919050555060008067ffffffffffffffff81111561027357610272611601565b5b6040519080825280602002602001820160405280156102a15781602001602082028036833780820191505090505b5090506040518060c001604052808481526020018381526020016000815260200182815260200160008152602001600115158152506000808581526020019081526020016000206000820151816000015560208201518160010190816103079190611ca8565b5060408201518160020155606082015181600301908051906020019061032e929190611511565b506080820151816004015560a08201518160050160006101000a81548160ff021916908315150217905550905050505050565b60035481565b600060205280600052604060002060009150905080600001549080600101805461039090611acb565b80601f01602080910402602001604051908101604052809291908181526020018280546103bc90611acb565b80156104095780601f106103de57610100808354040283529160200191610409565b820191906000526020600020905b8154815290600101906020018083116103ec57829003601f168201915b5050505050908060020154908060040154908060050160009054906101000a900460ff16905085565b60008084815260200190815260200160002060050160009054906101000a900460ff16610494576040517f08c379a000000000000000000000000000000000000000000000000000000000815260040161048b90611dc6565b60405180910390fd5b60008083815260200190815260200160002060050160009054906101000a900460ff166104f6576040517f08c379a00000000000000000000000000000000000000000000000000000000081526004016104ed90611e32565b60405180910390fd5b818303610538576040517f08c379a000000000000000000000000000000000000000000000000000000000815260040161052f90611e9e565b60405180910390fd5b600060015467ffffffffffffffff81111561055657610555611601565b5b6040519080825280602002602001820160405280156105845781602001602082028036833780820191505090505b50905060005b81518110156105cd5760008282815181106105a8576105a7611ebe565b5b60200260200101901515908115158152505080806105c590611a54565b91505061058a565b506000849050600060015467ffffffffffffffff8111156105f1576105f0611601565b5b60405190808252806020026020018201604052801561061f5781602001602082028036833780820191505090505b509050600060015467ffffffffffffffff8111156106405761063f611601565b5b60405190808252806020026020018201604052801561066e5781602001602082028036833780820191505090505b50905060005b6001548110156106d1577fffffffffffffffffffffffffffffffffffffffffffffffffffffffffffffffff8282815181106106b2576106b1611ebe565b5b60200260200101818152505080806106c990611a54565b915050610674565b506000806001868a815181106106ea576106e9611ebe565b5b6020026020010190151590811515815250508884828061070990611a54565b93508151811061071c5761071b611ebe565b5b6020026020010181815250505b8082146109ea5783828061073c90611a54565b93508151811061074f5761074e611ebe565b5b60200260200101519450878503156109ea5760005b600080878152602001908152602001600020600401548110156109e45760006107be876000808a815260200190815260200160002060030184815481106107ae576107ad611ebe565b5b9060005260206000200154611471565b9050600080600089815260200190815260200160002060030183815481106107e9576107e8611ebe565b5b90600052602060002001548810610833576002600083815260200190815260200160002060040160018154811061082357610822611ebe565b5b9060005260206000200154610868565b6002600083815260200190815260200160002060040160008154811061085c5761085b611ebe565b5b90600052602060002001545b9050886000808a8152602001908152602001600020600301848154811061089257610891611ebe565b5b9060005260206000200154815181106108ae576108ad611ebe565b5b60200260200101511580156108c35750898110155b156109cf5787866000808b815260200190815260200160002060030185815481106108f1576108f0611ebe565b5b90600052602060002001548151811061090d5761090c611ebe565b5b6020026020010181815250506001896000808b8152602001908152602001600020600301858154811061094357610942611ebe565b5b90600052602060002001548151811061095f5761095e611ebe565b5b602002602001019015159081151581525050600080898152602001908152602001600020600301838154811061099857610997611ebe565b5b90600052602060002001548785806109af90611a54565b9650815181106109c2576109c1611ebe565b5b6020026020010181815250505b505080806109dc90611a54565b915050610764565b50610729565b878514610a2c576040517f08c379a0000000000000000000000000000000000000000000000000000000008152600401610a2390611f5f565b60405180910390fd5b878503610bca575b888514610bc9576000610a6186858881518110610a5457610a53611ebe565b5b6020026020010151611471565b90506000848781518110610a7857610a77611ebe565b5b60200260200101518710610a8d576001610a90565b60005b60ff16905088600260008481526020019081526020016000206004018281548110610abe57610abd611ebe565b5b906000526020600020016000828254610ad79190611f7f565b925050819055508860026000848152602001908152602001600020600401826001610b029190611fb3565b81548110610b1357610b12611ebe565b5b906000526020600020016000828254610b2c9190611fb3565b92505081905550886000808981526020019081526020016000206002016000828254610b589190611f7f565b9250508190555088600080878a81518110610b7657610b75611ebe565b5b602002602001015181526020019081526020016000206002016000828254610b9e9190611fb3565b92505081905550848781518110610bb857610bb7611ebe565b5b602002602001015196505050610a34565b5b505050505050505050565b60015481565b60008084815260200190815260200160002060050160009054906101000a900460ff16610c3d576040517f08c379a0000000000000000000000000000000000000000000000000000000008152600401610c3490612033565b60405180910390fd5b60008083815260200190815260200160002060050160009054906101000a900460ff16610c9f576040517f08c379a0000000000000000000000000000000000000000000000000000000008152600401610c969061209f565b60405180910390fd5b818303610ce1576040517f08c379a0000000000000000000000000000000000000000000000000000000008152600401610cd890612131565b60405180910390fd5b6000610ced8484611471565b90506002600082815260200190815260200160002060050160009054906101000a900460ff1615610d53576040517f08c379a0000000000000000000000000000000000000000000000000000000008152600401610d4a9061219d565b60405180910390fd5b60036000815480929190610d6690611a54565b91905055506000600267ffffffffffffffff811115610d8857610d87611601565b5b604051908082528060200260200182016040528015610db65781602001602082028036833780820191505090505b5090508281600081518110610dce57610dcd611ebe565b5b6020026020010181815250508281600181518110610def57610dee611ebe565b5b6020026020010181815250506040518060c00160405280838152602001868152602001858152602001600285610e2591906121bd565b81526020018281526020016001151581525060026000848152602001908152602001600020600082015181600001556020820151816001015560408201518160020155606082015181600301556080820151816004019080519060200190610e8e929190611511565b5060a08201518160050160006101000a81548160ff0219169083151502179055509050506000808681526020019081526020016000206003018490806001815401808255809150506001900390600052602060002001600090919091909150556000808581526020019081526020016000206003018590806001815401808255809150506001900390600052602060002001600090919091909150556000808681526020019081526020016000206004016000815480929190610f5090611a54565b91905055506000808581526020019081526020016000206004016000815480929190610f7b90611a54565b9190505550826000808781526020019081526020016000206002016000828254610fa59190611f7f565b92505081905550826000808681526020019081526020016000206002016000828254610fd19190611f7f565b925050819055505050505050565b6000610feb8383611471565b90506002600082815260200190815260200160002060050160009054906101000a900460ff16611050576040517f08c379a00000000000000000000000000000000000000000000000000000000081526004016110479061224b565b60405180910390fd5b600082841061105f5782611061565b835b905060008385106110725784611074565b835b9050819450809350600260008481526020019081526020016000206004016000815481106110a5576110a4611ebe565b5b906000526020600020015460008087815260200190815260200160002060020160008282546110d49190611f7f565b925050819055506002600084815260200190815260200160002060040160018154811061110457611103611ebe565b5b906000526020600020015460008086815260200190815260200160002060020160008282546111339190611f7f565b9250508190555060005b6000808781526020019081526020016000206004015481101561125d5784600080888152602001908152602001600020600301828154811061118257611181611ebe565b5b90600052602060002001540361124a576000808781526020019081526020016000206003016001600080898152602001908152602001600020600401546111c99190611fb3565b815481106111da576111d9611ebe565b5b9060005260206000200154600080888152602001908152602001600020600301828154811061120c5761120b611ebe565b5b906000526020600020018190555060008087815260200190815260200160002060040160008154809291906112409061226b565b919050555061125d565b808061125590611a54565b91505061113d565b5060008086815260200190815260200160002060030180548061128357611282612294565b5b6001900381819060005260206000200160009055905560005b600080868152602001908152602001600020600401548110156113bc578560008087815260200190815260200160002060030182815481106112e1576112e0611ebe565b5b9060005260206000200154036113a9576000808681526020019081526020016000206003016001600080888152602001908152602001600020600401546113289190611fb3565b8154811061133957611338611ebe565b5b9060005260206000200154600080878152602001908152602001600020600301828154811061136b5761136a611ebe565b5b9060005260206000200181905550600080868152602001908152602001600020600401600081548092919061139f9061226b565b91905055506113bc565b80806113b490611a54565b91505061129c565b506000808581526020019081526020016000206003018054806113e2576113e1612294565b5b600190038181906000526020600020016000905590556002600084815260200190815260200160002060008082016000905560018201600090556002820160009055600382016000905560048201600061143c919061155e565b6005820160006101000a81549060ff02191690555050600360008154809291906114659061226b565b91905055505050505050565b6000808284106114815782611483565b835b905060008385106114945784611496565b835b905081816040516020016114ab9291906122e4565b6040516020818303038152906040528051906020012060001c9250505092915050565b60026020528060005260406000206000915090508060000154908060010154908060020154908060030154908060050160009054906101000a900460ff16905085565b82805482825590600052602060002090810192821561154d579160200282015b8281111561154c578251825591602001919060010190611531565b5b50905061155a919061157f565b5090565b508054600082559060005260206000209081019061157c919061157f565b50565b5b80821115611598576000816000905550600101611580565b5090565b6000604051905090565b600080fd5b600080fd5b6000819050919050565b6115c3816115b0565b81146115ce57600080fd5b50565b6000813590506115e0816115ba565b92915050565b600080fd5b600080fd5b6000601f19601f8301169050919050565b7f4e487b7100000000000000000000000000000000000000000000000000000000600052604160045260246000fd5b611639826115f0565b810181811067ffffffffffffffff8211171561165857611657611601565b5b80604052505050565b600061166b61159c565b90506116778282611630565b919050565b600067ffffffffffffffff82111561169757611696611601565b5b6116a0826115f0565b9050602081019050919050565b82818337600083830152505050565b60006116cf6116ca8461167c565b611661565b9050828152602081018484840111156116eb576116ea6115eb565b5b6116f68482856116ad565b509392505050565b600082601f830112611713576117126115e6565b5b81356117238482602086016116bc565b91505092915050565b60008060408385031215611743576117426115a6565b5b6000611751858286016115d1565b925050602083013567ffffffffffffffff811115611772576117716115ab565b5b61177e858286016116fe565b9150509250929050565b611791816115b0565b82525050565b60006020820190506117ac6000830184611788565b92915050565b6000602082840312156117c8576117c76115a6565b5b60006117d6848285016115d1565b91505092915050565b600081519050919050565b600082825260208201905092915050565b60005b838110156118195780820151818401526020810190506117fe565b60008484015250505050565b6000611830826117df565b61183a81856117ea565b935061184a8185602086016117fb565b611853816115f0565b840191505092915050565b60008115159050919050565b6118738161185e565b82525050565b600060a08201905061188e6000830188611788565b81810360208301526118a08187611825565b90506118af6040830186611788565b6118bc6060830185611788565b6118c9608083018461186a565b9695505050505050565b6000806000606084860312156118ec576118eb6115a6565b5b60006118fa868287016115d1565b935050602061190b868287016115d1565b925050604061191c868287016115d1565b9150509250925092565b6000806040838503121561193d5761193c6115a6565b5b600061194b858286016115d1565b925050602061195c858286016115d1565b9150509250929050565b600060a08201905061197b6000830188611788565b6119886020830187611788565b6119956040830186611788565b6119a26060830185611788565b6119af608083018461186a565b9695505050505050565b7f5573657220616c72656164792065786973747300000000000000000000000000600082015250565b60006119ef6013836117ea565b91506119fa826119b9565b602082019050919050565b60006020820190508181036000830152611a1e816119e2565b9050919050565b7f4e487b7100000000000000000000000000000000000000000000000000000000600052601160045260246000fd5b6000611a5f826115b0565b91507fffffffffffffffffffffffffffffffffffffffffffffffffffffffffffffffff8203611a9157611a90611a25565b5b600182019050919050565b7f4e487b7100000000000000000000000000000000000000000000000000000000600052602260045260246000fd5b60006002820490506001821680611ae357607f821691505b602082108103611af657611af5611a9c565b5b50919050565b60008190508160005260206000209050919050565b60006020601f8301049050919050565b600082821b905092915050565b600060088302611b5e7fffffffffffffffffffffffffffffffffffffffffffffffffffffffffffffffff82611b21565b611b688683611b21565b95508019841693508086168417925050509392505050565b6000819050919050565b6000611ba5611ba0611b9b846115b0565b611b80565b6115b0565b9050919050565b6000819050919050565b611bbf83611b8a565b611bd3611bcb82611bac565b848454611b2e565b825550505050565b600090565b611be8611bdb565b611bf3818484611bb6565b505050565b5b81811015611c1757611c0c600082611be0565b600181019050611bf9565b5050565b601f821115611c5c57611c2d81611afc565b611c3684611b11565b81016020851015611c45578190505b611c59611c5185611b11565b830182611bf8565b50505b505050565b600082821c905092915050565b6000611c7f60001984600802611c61565b1980831691505092915050565b6000611c988383611c6e565b9150826002028217905092915050565b611cb1826117df565b67ffffffffffffffff811115611cca57611cc9611601565b5b611cd48254611acb565b611cdf828285611c1b565b600060209050601f831160018114611d125760008415611d00578287015190505b611d0a8582611c8c565b865550611d72565b601f198416611d2086611afc565b60005b82811015611d4857848901518255600182019150602085019450602081019050611d23565b86831015611d655784890151611d61601f891682611c6e565b8355505b6001600288020188555050505b505050505050565b7f55736572203120646f6573206e6f742065786973747300000000000000000000600082015250565b6000611db06016836117ea565b9150611dbb82611d7a565b602082019050919050565b60006020820190508181036000830152611ddf81611da3565b9050919050565b7f55736572203220646f6573206e6f742065786973747300000000000000000000600082015250565b6000611e1c6016836117ea565b9150611e2782611de6565b602082019050919050565b60006020820190508181036000830152611e4b81611e0f565b9050919050565b7f557365722063616e6e6f742073656e64206d6f6e657920746f2073656c660000600082015250565b6000611e88601e836117ea565b9150611e9382611e52565b602082019050919050565b60006020820190508181036000830152611eb781611e7b565b9050919050565b7f4e487b7100000000000000000000000000000000000000000000000000000000600052603260045260246000fd5b7f4e6f207061746820776974682073756666696369656e7420616d6f756e74206560008201527f7869737473000000000000000000000000000000000000000000000000000000602082015250565b6000611f496025836117ea565b9150611f5482611eed565b604082019050919050565b60006020820190508181036000830152611f7881611f3c565b9050919050565b6000611f8a826115b0565b9150611f95836115b0565b9250828201905080821115611fad57611fac611a25565b5b92915050565b6000611fbe826115b0565b9150611fc9836115b0565b9250828203905081811115611fe157611fe0611a25565b5b92915050565b7f55736572203120646f6573206e6f742065786973740000000000000000000000600082015250565b600061201d6015836117ea565b915061202882611fe7565b602082019050919050565b6000602082019050818103600083015261204c81612010565b9050919050565b7f55736572203220646f6573206e6f742065786973740000000000000000000000600082015250565b60006120896015836117ea565b915061209482612053565b602082019050919050565b600060208201905081810360008301526120b88161207c565b9050919050565b7f43616e6e6f7420637265617465206163636f756e7420776974682073616d652060008201527f7573657200000000000000000000000000000000000000000000000000000000602082015250565b600061211b6024836117ea565b9150612126826120bf565b604082019050919050565b6000602082019050818103600083015261214a8161210e565b9050919050565b7f4a6f696e74206163636f756e7420616c7265616479206578697374732e000000600082015250565b6000612187601d836117ea565b915061219282612151565b602082019050919050565b600060208201905081810360008301526121b68161217a565b9050919050565b60006121c8826115b0565b91506121d3836115b0565b92508282026121e1816115b0565b915082820484148315176121f8576121f7611a25565b5b5092915050565b7f4163636f756e7420646f6573206e6f7420657869737400000000000000000000600082015250565b60006122356016836117ea565b9150612240826121ff565b602082019050919050565b6000602082019050818103600083015261226481612228565b9050919050565b6000612276826115b0565b91506000820361228957612288611a25565b5b600182039050919050565b7f4e487b7100000000000000000000000000000000000000000000000000000000600052603160045260246000fd5b6000819050919050565b6122de6122d9826115b0565b6122c3565b82525050565b60006122f082856122cd565b60208201915061230082846122cd565b602082019150819050939250505056fea26469706673582212209450aaec2056e082f1207ec71aefe5d63bc7d87b4afa2125d5c60197cf198caf64736f6c63430008130033",
  "immutableReferences": {},
  "source": "// SPDX-License-Identifier: MIT\npragma solidity ^0.8.0;\n\ncontract DAPP{\n    \n    struct User {\n        uint id;\n        string name;\n        uint balance;\n        uint[] partners;\n        uint partnerCount;\n        bool exists;\n    }\n    \n    struct Account {\n        uint account_id;\n        uint user1;\n        uint user2;\n        uint balance;\n        uint[] contributions;\n        bool exists;\n    }\n    \n    mapping(uint => User) public users;\n    uint public usersCount;\n    mapping(uint => Account) public accounts;\n    uint public accountsCount;\n    \n    function registerUser(uint id, string memory name) public {\n        require(!users[id].exists, \"User already exists\");\n        usersCount++;\n        uint[] memory partners = new uint[](0);\n        users[id] = User(id, name,0, partners, 0, true);\n    }\n\n    function getAccountId(uint user1, uint user2) public pure returns (uint) {\n        uint smallerUserId = user1 < user2 ? user1 : user2;\n        uint largerUserId = user1 < user2 ? user2 : user1;\n        return uint(keccak256(abi.encodePacked(smallerUserId, largerUserId)));\n    }\n    \n    // balance - is the balance of individual node\n    function createAcc(uint user1, uint user2, uint balance) public {\n        // users should exist\n        require(users[user1].exists, \"User 1 does not exist\");\n        require(users[user2].exists, \"User 2 does not exist\");\n\n        // Account should not be created with the same user\n        require(user1 != user2, \"Cannot create account with same user\");\n        \n        // Same account should not exist\n        uint account_id = getAccountId(user1, user2);\n        require(!accounts[account_id].exists, \"Joint account already exists.\");\n        \n        // Increment the accounts count\n        accountsCount++;\n\n        uint[] memory contributions = new uint[](2);\n        contributions[0] = balance;\n        contributions[1] = balance;\n\n        // Updating the state of the users\n        accounts[account_id] = Account(account_id, user1, user2, balance*2, contributions, true);\n        users[user1].partners.push(user2);\n        users[user2].partners.push(user1);\n        users[user1].partnerCount++;\n        users[user2].partnerCount++;\n        users[user1].balance += balance;\n        users[user2].balance += balance;\n    }\n\n    function sendAmount(uint user1,uint user2,uint amount) public{\n        require(users[user1].exists, \"User 1 does not exists\");\n        require(users[user2].exists, \"User 2 does not exists\");\n        \n        require(user1!=user2, \"User cannot send money to self\");\n        \n        bool[] memory visited = new bool[](usersCount);\n        for (uint i = 0; i < visited.length; i++) {\n            visited[i] = false; // set all elements to 10\n        }\n\n        uint currnode = user1;\n\n        // Queue for BFS \n        uint[] memory queue = new uint[](usersCount);\n        uint[] memory parent = new uint[](usersCount);\n        // initializing the parent of each node as 2^256 -1 \n        for(uint i = 0;i<usersCount;i++){\n            parent[i] = type(uint).max;\n        }\n        uint front = 0;\n        uint rear = 0;\n\n        visited[user1] = true;\n        queue[rear++] = user1;\n\n        while(front != rear){\n            currnode = queue[front++];\n            if (currnode == user2){\n                break;\n            }\n            \n            for(uint adjacent = 0; adjacent < users[currnode].partnerCount;adjacent++){\n                uint account_id = getAccountId(currnode, users[currnode].partners[adjacent]);\n                uint currnode_contri = (currnode < users[currnode].partners[adjacent])? accounts[account_id].contributions[0] : accounts[account_id].contributions[1];\n\n                // add it to BFS if it has not been visited and the edge (on source side) has suffecient balance\n                if(!visited[users[currnode].partners[adjacent]] && currnode_contri >= amount){\n                    parent[users[currnode].partners[adjacent]] = currnode;\n                    visited[users[currnode].partners[adjacent]] = true;\n                    queue[rear++] = users[currnode].partners[adjacent];\n                }\n            }\n        }    \n\n        // no path to user2 has enough amount\n        require(currnode == user2, \"No path with sufficient amount exists\");\n        if(currnode == user2){\n            while(currnode!= user1){\n                uint account_id = getAccountId(currnode, parent[currnode]);\n                uint currnode_index = (currnode < parent[currnode])? 0:1;\n\n                accounts[account_id].contributions[currnode_index] += amount;\n                accounts[account_id].contributions[1-currnode_index] -= amount;\n\n                users[currnode].balance += amount;\n                users[parent[currnode]].balance -= amount;\n\n                currnode = parent[currnode];\n            }\n        }  \n    }\n    \n    function closeAccount(uint user1, uint user2) public {\n        uint account_id = getAccountId(user1, user2);\n        require(accounts[account_id].exists, \"Account does not exist\");\n\n        // user1 changed to the lower user_id of the two\n        uint smallerUserId = user1 < user2 ? user1 : user2;\n        uint largerUserId = user1 < user2 ? user2 : user1;\n        user1 = smallerUserId;\n        user2 = largerUserId;\n\n        users[user1].balance += accounts[account_id].contributions[0];\n        users[user2].balance += accounts[account_id].contributions[1];\n        \n        for (uint i = 0; i < users[user1].partnerCount; i++) {\n            if (users[user1].partners[i] == user2) {\n                users[user1].partners[i] = users[user1].partners[users[user1].partnerCount - 1];\n                users[user1].partnerCount--;\n                break;\n            }\n        }\n\n        users[user1].partners.pop();\n        \n        for (uint i = 0; i < users[user2].partnerCount; i++) {\n            if (users[user2].partners[i] == user1) {\n                users[user2].partners[i] = users[user2].partners[users[user2].partnerCount - 1];\n                users[user2].partnerCount--;\n                break;\n            }\n        }\n\n        users[user2].partners.pop();\n        \n        delete accounts[account_id];\n\n        accountsCount--;\n    }\n}",
  "sourcePath": "/mnt/c/Users/shubh/onedrive/desktop/cs765-assignment3/contracts/DAPP.sol",
  "compiler": {
    "name": "solc",
    "version": "0.8.19+commit.7dd6d404.Emscripten.clang"
  },
  "schemaVersion": "3.4.13",
  "updatedAt": "2023-04-11T14:06:54.788Z",
  "networkType": "ethereum",
  "devdoc": {
    "kind": "dev",
    "methods": {},
    "version": 1
  },
  "userdoc": {
    "kind": "user",
    "methods": {},
    "version": 1
  }
}